{
  "contractName": "Box",
  "abi": [
    {
      "anonymous": false,
      "inputs": [
        {
          "indexed": false,
          "internalType": "uint256",
          "name": "amount",
          "type": "uint256"
        },
        {
          "indexed": false,
          "internalType": "address",
          "name": "token",
          "type": "address"
        }
      ],
      "name": "ErcTransfer",
      "type": "event"
    },
    {
      "anonymous": false,
      "inputs": [
        {
          "indexed": true,
          "internalType": "address",
          "name": "previousOwner",
          "type": "address"
        },
        {
          "indexed": true,
          "internalType": "address",
          "name": "newOwner",
          "type": "address"
        }
      ],
      "name": "OwnershipTransferred",
      "type": "event"
    },
    {
      "anonymous": false,
      "inputs": [
        {
          "indexed": false,
          "internalType": "uint256",
          "name": "value",
          "type": "uint256"
        }
      ],
      "name": "ValueChanged",
      "type": "event"
    },
    {
      "inputs": [],
      "name": "owner",
      "outputs": [
        {
          "internalType": "address",
          "name": "",
          "type": "address"
        }
      ],
      "stateMutability": "view",
      "type": "function"
    },
    {
      "inputs": [],
      "name": "renounceOwnership",
      "outputs": [],
      "stateMutability": "nonpayable",
      "type": "function"
    },
    {
      "inputs": [
        {
          "internalType": "address",
          "name": "newOwner",
          "type": "address"
        }
      ],
      "name": "transferOwnership",
      "outputs": [],
      "stateMutability": "nonpayable",
      "type": "function"
    },
    {
      "inputs": [
        {
          "internalType": "uint256",
          "name": "value",
          "type": "uint256"
        }
      ],
      "name": "store",
      "outputs": [],
      "stateMutability": "nonpayable",
      "type": "function"
    },
    {
      "inputs": [
        {
          "internalType": "address",
          "name": "_token",
          "type": "address"
        },
        {
          "internalType": "address",
          "name": "_to",
          "type": "address"
        },
        {
          "internalType": "uint256",
          "name": "_amount",
          "type": "uint256"
        }
      ],
      "name": "payWithERC",
      "outputs": [],
      "stateMutability": "nonpayable",
      "type": "function"
    },
    {
      "inputs": [
        {
          "internalType": "address",
          "name": "_user",
          "type": "address"
        }
      ],
      "name": "approveWithdrawal",
      "outputs": [
        {
          "internalType": "bool",
          "name": "",
          "type": "bool"
        }
      ],
      "stateMutability": "nonpayable",
      "type": "function"
    },
    {
      "inputs": [],
      "name": "retrieve",
      "outputs": [
        {
          "internalType": "uint256",
          "name": "",
          "type": "uint256"
        }
      ],
      "stateMutability": "view",
      "type": "function"
    }
  ],
  "bytecode": "0x608060405234801561001057600080fd5b5061002d61002261003260201b60201c565b61003a60201b60201c565b6100fe565b600033905090565b60008060009054906101000a900473ffffffffffffffffffffffffffffffffffffffff169050816000806101000a81548173ffffffffffffffffffffffffffffffffffffffff021916908373ffffffffffffffffffffffffffffffffffffffff1602179055508173ffffffffffffffffffffffffffffffffffffffff168173ffffffffffffffffffffffffffffffffffffffff167f8be0079c531659141344cd1fd0a4f28419497f9722a3daafe3b4186f6b6457e060405160405180910390a35050565b6109418061010d6000396000f3fe608060405234801561001057600080fd5b506004361061007d5760003560e01c80636057361d1161005b5780636057361d146100ec578063715018a6146101085780638da5cb5b14610112578063f2fde38b146101305761007d565b80632e64cec1146100825780634914fb27146100a057806354789fd0146100d0575b600080fd5b61008a61014c565b60405161009791906107c8565b60405180910390f35b6100ba60048036038101906100b5919061063e565b610156565b6040516100c7919061076d565b60405180910390f35b6100ea60048036038101906100e59190610667565b610260565b005b610106600480360381019061010191906106b6565b6102e2565b005b61011061039f565b005b61011a610427565b6040516101279190610752565b60405180910390f35b61014a6004803603810190610145919061063e565b610450565b005b6000600154905090565b6000610160610548565b73ffffffffffffffffffffffffffffffffffffffff1661017e610427565b73ffffffffffffffffffffffffffffffffffffffff16146101d4576040517f08c379a00000000000000000000000000000000000000000000000000000000081526004016101cb906107a8565b60405180910390fd5b600260008373ffffffffffffffffffffffffffffffffffffffff1673ffffffffffffffffffffffffffffffffffffffff16815260200190815260200160002054600360008473ffffffffffffffffffffffffffffffffffffffff1673ffffffffffffffffffffffffffffffffffffffff1681526020019081526020016000208190555060019050919050565b80600260008473ffffffffffffffffffffffffffffffffffffffff1673ffffffffffffffffffffffffffffffffffffffff168152602001908152602001600020819055507f40729bcc2b3c06015f226761b0e83785a8ef6aaed96d9fab063a9ed1784a445081846040516102d59291906107e3565b60405180910390a1505050565b6102ea610548565b73ffffffffffffffffffffffffffffffffffffffff16610308610427565b73ffffffffffffffffffffffffffffffffffffffff161461035e576040517f08c379a0000000000000000000000000000000000000000000000000000000008152600401610355906107a8565b60405180910390fd5b806001819055507f93fe6d397c74fdf1402a8b72e47b68512f0510d7b98a4bc4cbdf6ac7108b3c598160405161039491906107c8565b60405180910390a150565b6103a7610548565b73ffffffffffffffffffffffffffffffffffffffff166103c5610427565b73ffffffffffffffffffffffffffffffffffffffff161461041b576040517f08c379a0000000000000000000000000000000000000000000000000000000008152600401610412906107a8565b60405180910390fd5b6104256000610550565b565b60008060009054906101000a900473ffffffffffffffffffffffffffffffffffffffff16905090565b610458610548565b73ffffffffffffffffffffffffffffffffffffffff16610476610427565b73ffffffffffffffffffffffffffffffffffffffff16146104cc576040517f08c379a00000000000000000000000000000000000000000000000000000000081526004016104c3906107a8565b60405180910390fd5b600073ffffffffffffffffffffffffffffffffffffffff168173ffffffffffffffffffffffffffffffffffffffff16141561053c576040517f08c379a000000000000000000000000000000000000000000000000000000000815260040161053390610788565b60405180910390fd5b61054581610550565b50565b600033905090565b60008060009054906101000a900473ffffffffffffffffffffffffffffffffffffffff169050816000806101000a81548173ffffffffffffffffffffffffffffffffffffffff021916908373ffffffffffffffffffffffffffffffffffffffff1602179055508173ffffffffffffffffffffffffffffffffffffffff168173ffffffffffffffffffffffffffffffffffffffff167f8be0079c531659141344cd1fd0a4f28419497f9722a3daafe3b4186f6b6457e060405160405180910390a35050565b600081359050610623816108dd565b92915050565b600081359050610638816108f4565b92915050565b60006020828403121561065057600080fd5b600061065e84828501610614565b91505092915050565b60008060006060848603121561067c57600080fd5b600061068a86828701610614565b935050602061069b86828701610614565b92505060406106ac86828701610629565b9150509250925092565b6000602082840312156106c857600080fd5b60006106d684828501610629565b91505092915050565b6106e88161081d565b82525050565b6106f78161082f565b82525050565b600061070a60268361080c565b915061071582610865565b604082019050919050565b600061072d60208361080c565b9150610738826108b4565b602082019050919050565b61074c8161085b565b82525050565b600060208201905061076760008301846106df565b92915050565b600060208201905061078260008301846106ee565b92915050565b600060208201905081810360008301526107a1816106fd565b9050919050565b600060208201905081810360008301526107c181610720565b9050919050565b60006020820190506107dd6000830184610743565b92915050565b60006040820190506107f86000830185610743565b61080560208301846106df565b9392505050565b600082825260208201905092915050565b60006108288261083b565b9050919050565b60008115159050919050565b600073ffffffffffffffffffffffffffffffffffffffff82169050919050565b6000819050919050565b7f4f776e61626c653a206e6577206f776e657220697320746865207a65726f206160008201527f6464726573730000000000000000000000000000000000000000000000000000602082015250565b7f4f776e61626c653a2063616c6c6572206973206e6f7420746865206f776e6572600082015250565b6108e68161081d565b81146108f157600080fd5b50565b6108fd8161085b565b811461090857600080fd5b5056fea2646970667358221220b3852d5514176de33e270221649e1bce3ca366d17c69d9d65cab801f5bb5ec3064736f6c63430008040033",
  "immutableReferences": {},
  "source": "// contracts/Box.sol\n// SPDX-License-Identifier: MIT\npragma solidity ^0.8.0;\n\n// import Auth from access control\n// import './access-control/Auth.sol';\nimport '@openzeppelin/contracts/access/Ownable.sol';\n\ncontract Box is Ownable {\n    uint256 private _value;\n    mapping(address => uint256) erc20Tracker;\n    mapping(address => uint256) poolToken;\n\n    // Emitted when the stored value changes\n    event ValueChanged(uint256 value);\n    event ErcTransfer(uint256 amount, address token);\n\n    // Stores a new value in the contract\n    function store(uint256 value) public onlyOwner {\n        _value = value;\n        emit ValueChanged(value);\n    }\n\n    function payWithERC(address _token, address _to, uint256 _amount) public {\n        erc20Tracker[_to] = _amount;\n        emit ErcTransfer(_amount, _token);\n    }\n\n    function approveWithdrawal(address _user) public onlyOwner returns(bool) {\n        poolToken[_user] = erc20Tracker[_user];\n        return true;\n    }\n\n    // Reads the last stored value\n    function retrieve() public view returns (uint256) {\n        return _value;\n    }\n}",
  "sourcePath": "/Users/apple/srv/koolamusic/learn-eth/openzeppelin/contracts/Box.sol",
  "compiler": {
    "name": "solc",
    "version": "0.8.4+commit.c7e474f2.Emscripten.clang"
  },
  "schemaVersion": "3.4.3",
  "updatedAt": "2021-08-30T08:26:49.092Z",
  "devdoc": {
    "kind": "dev",
    "methods": {
      "owner()": {
        "details": "Returns the address of the current owner."
      },
      "renounceOwnership()": {
        "details": "Leaves the contract without owner. It will not be possible to call `onlyOwner` functions anymore. Can only be called by the current owner. NOTE: Renouncing ownership will leave the contract without an owner, thereby removing any functionality that is only available to the owner."
      },
      "transferOwnership(address)": {
        "details": "Transfers ownership of the contract to a new account (`newOwner`). Can only be called by the current owner."
      }
    },
    "version": 1
  },
  "userdoc": {
    "kind": "user",
    "methods": {},
    "version": 1
  }
}